:030000000213BA2E
:0C13BA00787FE4F6D8FD758107020E650F
:10089B0049205400302E393627204F4C4544004117
:1008AB00534349493A00434F44453A000003050975
:1008BB0011FF118905C300E000F000F800000000F3
:1008CB000000004428FF11AA4400000000000000B3
:1008DB00000000000000000000000000000000000D
:1008EB0000000000000000000000000000000000FD
:1008FB0000000000000000000000000000000000ED
:10090B00000000000000830138448292927401833E
:10091B00000000000000007C44FF017D7D7D017D17
:10092B007D7D7D017D7D7D7D7D01FF0000000000D3
:10093B0000010001000100010001000100000000A6
:10094B00000000000001010000000000000000009A
:10095B00000000000000000000000000000000008C
:10096B00000000000000000000000000000000007C
:10097B00000000000000000000000000000000006C
:10098B000000000000000101000000000000010158
:10099B000000000000000000000101010101010145
:1009AB000101010101010101010101000000000031
:1009BB00000000000000000000000000000000002C
:1009CB0000000000000000003F3F0303F313111170
:1009DB001111111101F1116181010101816111F1FC
:1009EB00010101014141F10101010101C12111117C
:1009FB00111121C1010101014141F101010101016C
:100A0B0001010101011111111111D33303033F3FF7
:100A1B0000000000000000000000000000000000CB
:100A2B0000000000000000000000000000000000BB
:100A3B0000000000000000000000000000000000AB
:100A4B000000000000000000E0E000007F01010159
:100A5B0001010100007F0000010618060100007F64
:100A6B000000000040407F40400000001F2040403D
:100A7B004040201F0000000040407F40400000002D
:100A8B0000600000000040300C0300000000E0E0BC
:100A9B00000000000000000000000000000000004B
:100AAB00000000000000000000000000000000003B
:100ABB00000000000000000000000000000000002B
:100ACB0000000000000000000707060606060404ED
:100ADB00048444444484040484444444840404044B
:100AEB0084C40404040484444444840404040404BB
:100AFB00844444448404040404048444444484042B
:100B0B0004844444448404040404060606060707CC
:100B1B0000000000000000000000000000000000CA
:100B2B0000000000000000000000000000000000BA
:100B3B0000000000000000000000000000000000AA
:100B4B00000000000000000000000000000000009A
:100B5B0000101814121100000F1010100F000000DD
:100B6B00101F10000000081012120D0000180000DA
:100B7B000D1212120D0000180000101814121100A3
:100B8B0000101814121100000000000000000000FB
:100B9B00000000000000000000000000000000004A
:100BAB00000000000000000000000000000000003A
:100BBB00000000000000000000000000000000002A
:100BCB00000000000000000000000000000000001A
:100BDB00000000000000000000000000000000000A
:100BEB0000000000000000008080808080808080FA
:100BFB0000000000000000000000000000000000EA
:100C0B0000000000000000000000000000000000D9
:100C1B0000000000000000000000000000000000C9
:100C2B00000000000000000000000000007F030C2B
:100C3B00300C037F00003854545800007C040478B7
:100C4B0000003C40407C0000000000000000000061
:100C5B000000000000000000000000000000000089
:100C6B000000000000000000FFAAAAAA280800FF4D
:100C7B000000000000000000000000000000000069
:100C8B000000000000000000000000000000000059
:100C9B0000000000007F030C300C037F000026498E
:0C0CAB0049493200007F020408107F005D
:100E65009000007420F0120CB79000047408F0A3F1
:100E750074FFF0A37408F0A374B7F07B80E4FDFF62
:100E85001210967FD07E071213671212EE7BFF7A3F
:100E950008799B9000067410F0E4FDFF1211B3E48D
:100EA500FBFD7F1E1211297B01E4FD7F3012112904
:100EB5007BFF7A08799F9000067410F07D03E4FFAC
:100EC5001211B37BFF7A0879AA9000067410F07DA1
:100ED50006E4FF1211B37BFF7A0879B1900006741E
:100EE50010F07D067F3F1211B3900000E0FB9000EB
:100EF5000D7410F07D067F30120D97900000E00410
:100F0500F0E0D3947E40037420F0900000E0FB7A7B
:100F1500009000057403F0A37410F07D067F67123E
:0C0F25000F317F647E00121367020E92F1
:100003000000000000000000002F000000000700B7
:10001300070000147F147F1400242A7F2A12006231
:1000230064081323003649552250000005030000DD
:1000330000001C224100000041221C000014083E65
:1000430008140008083E0808000000A0600000082B
:10005300080808080000606000000020100804027F
:10006300003E5149453E0000427F4000004261513D
:100073004946002141454B31001814127F100027D7
:1000830045454539003C4A4949300001710905039A
:1000930000364949493600064949291E00003636CB
:1000A300000000005636000000081422410000142E
:1000B300141414140000412214080002015109060B
:1000C30000324959513E007C1211127C007F49498C
:1000D3004936003E41414122007F4141221C007FBD
:1000E30049494941007F09090901003E4149497ACB
:1000F300007F0808087F0000417F41000020404145
:100103003F01007F08142241007F40404040007FB0
:10011300020C027F007F0408107F003E4141413EF4
:10012300007F09090906003E4151215E007F09193C
:1001330029460046494949310001017F0101003F39
:100143004040403F001F2040201F003F4038403FB9
:10015300006314081463000708700807006151491D
:10016300454300007F41410000552A552A550000B0
:1001730041417F000004020102040040404040402E
:10018300000001020400002054545478007F4844C6
:10019300443800384444442000384444487F0038FD
:1001A3005454541800087E0901020018A4A4A47C26
:1001B300007F080404780000447D400000408084F0
:1001C3007D00007F102844000000417F4000007C38
:1001D30004180478007C0804047800384444443844
:1001E30000FC242424180018242418FC007C080490
:1001F300040800485454542000043F444020003C69
:100203004040207C001C2040201C003C4030403CEF
:10021300004428102844001CA0A0A07C004464547F
:100223004C441414141414140000000000000000C3
:100233000000000000000000000000F800000000C3
:10024300000000333000000000100C06100C060004
:10025300000000000000000040C07840C07840006B
:10026300043F04043F040400007088FC08300000CD
:10027300001820FF211E0000F008F000E018000025
:1002830000211C031E211E0000F0088870000000DE
:100293001E2123241927211010160E000000000030
:1002A3000000000000000000000000E0180402004D
:1002B300000000071820400000020418E0000000BE
:1002C3000040201807000000404080F080404000BC
:1002D3000202010F01020200000000F00000000012
:1002E3000101011F010101000000000000000000E6
:1002F30080B070000000000000000000000000005B
:1003030000010101010101010000000000000000E3
:10031300003030000000000000000000806018047E
:10032300006018060100000000E010080810E0005B
:10033300000F102020100F00001010F80000000024
:100343000020203F2020000000700808088870006B
:1003530000302824222130000030088888483000EB
:100363000018202020110E000000C02010F800000B
:1003730000070424243F240000F8088888080800A4
:100383000019212020110E0000E0108888180000B9
:10039300000F112020110E0000380808C83808008B
:1003A3000000003F0000000000708808088870000B
:1003B300001C222121221C0000E010080810E0008C
:1003C3000000312222110F00000000C0C000000015
:1003D300000000303000000000000080000000003A
:1003E3000000806000000000000080402010080032
:1003F30000010204081020004040404040404000FB
:1004030004040404040404000008102040800000D5
:100413000020100804020100007048080808F000DA
:100423000000003036010000C030C828E810E000AA
:100433000718272423140B000000C038E000000035
:10044300203C23020227382008F88888887000009F
:10045300203F202020110E00C03008080808380073
:10046300071820202010080008F808080810E000EA
:10047300203F202020100F0008F88888E80810008B
:10048300203F20202320180008F88888E80810005F
:10049300203F200003000000C03008080838000097
:1004A30007182020221E020008F808000008F80898
:1004B300203F210101213F20000808F8080800001F
:1004C3000020203F2020000000000808F808080052
:1004D300C08080807F00000008F888C028180800CA
:1004E300203F20012638200008F808000000000003
:1004F300203F20202020300008F8F800F8F80800FA
:10050300203F003F003F200008F830C00008F808F3
:10051300203F200007183F00E01008080810E00003
:100523000F10202020100F0008F808080808F0001A
:10053300203F210101010000E01008080810E0003D
:100543000F18242438504F0008F8888888887000D2
:10055300203F2000030C3020007088080808380072
:100563000038202121221C00180808F80808180068
:100573000000203F2000000008F808000008F808E9
:10058300001F202020201F000878880000C838089A
:10059300000007380E010000F80800F80008F80012
:1005A300033C0700073C03000818688080681808AC
:1005B30020302C03032C30200838C800C83808002A
:1005C3000000203F2000000010080808C838080079
:1005D3002038262120201800000000FE020202001D
:1005E3000000007F40404000000C30C000000000CD
:1005F300000000010638C00000020202FE000000F5
:10060300004040407F00000000000402020204009A
:1006130000000000000000000000000000000000D7
:1006230080808080808080800002020400000000BF
:1006330000000000000000000000808080800000B7
:100643000019242222223F2008F8008080000000A5
:10065300003F112020110E00000000808080000068
:10066300000E112020201100000000808088F80077
:10067300000E112020103F200000808080800000A9
:10068300001F222222221300008080F0888888180D
:100693000020203F20200000000080808080800018
:1006A300006B94949493600008F8008080800000AD
:1006B300203F210000203F20008098980000000088
:1006C3000020203F202000000000008098980000B8
:1006D30000C08080807F000008F8000080808000D8
:1006E300203F24022D302000000808F800000000FD
:1006F3000020203F202000008080808080808000B8
:10070300203F20003F20003F808000808080000049
:10071300203F210000203F200000808080800000D7
:10072300001F202020201F00808000808000000008
:1007330080FFA12020110E00000000808080800037
:10074300000E112020A0FF80808080008080800028
:1007530020203F2120000100000080808080800055
:100763000033242424241900008080E080800000CA
:100773000000001F20200000808000000080800017
:10078300001F202020103F20808080000080808078
:1007930000010E3008060100808000800080808008
:1007A3000F300C030C300F0000808000808080002D
:1007B3000020312E0E312000808080000080808058
:1007C30080818E7018060100008080808080800008
:1007D3000021302C2221300000000000807C020226
:1007E30000000000003F404000000000FF00000048
:1007F30000000000FF0000000002027C80000000F7
:100803000040403F00000000000601010202040412
:100813000000000000000000202024242424BF64E2
:1008230024342824222020000000000000000000BF
:100833000000000000000000100804023F4544448B
:100843004242424178000000000000000000000026
:1008530000000000000000000022261A92027E80A1
:1008630022261A12027E0000000000000000000091
:100873000000000000000000080402FF5555555514
:100883007F55555555410000000000000000000051
:0808930000000000000000005D
:10131400D3EF9400EE940040147D657C18ED1D70AD
:0D132400011CED4C70F7EF1F70E61E80E31A
:011331002299
:10136700EF1FAA0670011E4A600BE4FDEDC3947BD4
:0513770050EE0D80F7AF
:01137C00224E
:0913C600D290D291C291C2902292
:0713CF00D290C291D29122DD
:0B138E001212A7121399AF041212A74D
:05139900D290C2902279
:0712A000AC071213C67F78B2
:1012A700C290E4FEAD07ED5480B48004D291800271
:0F12B700C291EF25E0FFD290C2900EEEB408E591
:0112C6002205
:0E139E001212A0121399E4FF12138E0213CF45
:0E13AC001212A01213997F4012138E0213CF5B
:10127400E924B0FFE433FEE4FDFC12128FE4FDFC2C
:0B128400FFFE12128F7F10E4FDFCFE45
:10128F00AB07AA06ED4C60030213ACAF0312139E1B
:01129F00222C
:0512470090000FEFF024
:10124C00E4F9121274E4900010F090000FE0FF7EAD
:10125C00007D017C0012128FA3E004F0E0C39480A7
:07126C0040E809E9B408DBCA
:011273002258
:0812130090000AE0FFA3E0FDDA
:10121B00A907ED24B0FFE433FEE4FDFC12128FE9C5
:10122B0054F0C4540F7E004410FFE4FDFC12128FE7
:0C123B00E9540FFF7E00E4FDFC02128F5E
:101350007F8D12128BE4FDFC7F14FE12128FE4FDD0
:07136000FC7FAFFE02128FBB
:10137D00E4FDFC7F8D121285E4FDFC7FAEFE0212B2
:01138D008FD0
:1012EE00E4F9121274E4900001F07D017C00E4FF39
:1012FE00FE12128F900001E004F0E0C3948040EAE9
:05130E0009E9B408DD4F
:0113130022B7
:1012C700E4F9121274E4900011F07D017C007F01B3
:1012D7007E0012128F900011E004F0E0C39480406A
:0612E700E909E9B408DC8E
:0112ED0022DE
:0B0D970090000BEDF090000AEFF0FD63
:100DA200E490000EF0F9EB24E0F0EDD3947F400ADA
:100DB200E490000AF0A3E02402F090000DE0641039
:100DC200706E121213E4F990000EE075F010A4296F
:100DD200F582E435F0F583E582242BF582E5833450
:100DE20002F583E493FF7E007D017C0012128F09DD
:100DF200E9B408D390000AE0FFA3E004FD12121B3D
:100E0200E4F990000EE075F010A429F582E435F0C3
:100E1200F583E5822433F582E5833402F583E49396
:100E2200FF7E007D017C0012128F09E9B408D322F3
:100E3200121213E4F990000EE075F006A42403F5F3
:100E420082E5F03400F583E58229F582E43583F505
:100E520083E493FF7E007D017C0012128F09E9B4C6
:020E620006D3B5
:010E6400226B
:0713320090000AEFF0A9058D
:101339007F017E00AD0119ED600C90000AE0FD7C93
:061349000012101980EEF5
:01134F00227B
:0E0F3100900001EFF0A3EDF0A3EAF0A3EBF0C7
:100F3F00E4900009F0900007F0900005E0FF9000AA
:100F4F0007E0FEC39F4003020FEBC3EF9E14FD7F2C
:100F5F000A121332900003E0FCA3E0FDCFCDCFCEF9
:100F6F00CCCE12102B7C007D0A12102B900008EDB6
:100F7F00F0A3E07036900005E014FF900007E0FE4C
:100F8F00C39F5027A3E0701D900006E0FCC3138E93
:100F9F00F0A4FF900001E02FFFA3E0FD90000DEC07
:100FAF00F07B20802B9000097401F0900006E0FE8A
:100FBF00C313FFA3E0FDEF8DF0A4FF900001E02F1E
:100FCF00FFA3E0FD900008E02430FB90000DEEF051
:0C0FDF00120D97900007E004F0020F488C
:010FEB0022E3
:1011B300900001EFF0A3EDF0A3EBF0A3EAF0A3E9B5
:0111C300F03B
:1011C400E4900007F0900003E0FBA3E0FAA3E0F949
:1011D400900007E0F582758300120FECFB602F90FE
:1011E4000001E0FFA3E0FD900006E090000DF01286
:1011F4000D97900001E02408F0E0D394784007E4D0
:0E120400F0A3E02402F0900007E004F080B7B1
:0112120022B9
:0D112900900003EBF0900001EFF0A3EDF05B
:10113600E4900004F012121BE4F9900003E075F04D
:1011460040A4241BF582E43408F583E58229F58260
:10115600E43583F583E493FF7E007D017C00121263
:101166008F900004E004F009E9B410CE900001E08D
:10117600FFA3E004FD12121BE4F9900003E075F0F2
:1011860040A4243BF582E43408F583E58229F58200
:10119600E43583F583E493FF7E007D017C00121223
:0C11A6008F900004E004F009E9B410CEC2
:0111B200221A
:0A109600900001EFF0900003EBF072
:1010A000E4900008F0A3F0900004E0FF54077008FB
:1010B000EF131313541F800A900004E0131313540A
:1010C0001F0490000BF090000BEDF0900004E0FF87
:1010D00090000BE0FDC39F504F900001E0FF121203
:1010E0001BE090000AF0900003E0FF90000AE0C3CC
:1010F0009F502D900005E0FBA3E0FAA3E0F9A3E4E4
:1011000075F00112108085F082F583120FECFF7EDE
:10111000007D017C0012128F90000AE004F080C66E
:0811200090000BE004F080A335
:0111280022A4
:100CB700E4FDFC7FAEFE12127EE4FDFC7F40FE12D7
:100CC700128FE4FDFC7FB0FE12128FE4FDFC7F81E2
:100CD700FE12128FE4FDFC7FFFFE12128FE4FDFC73
:100CE7007FA1FE12128FE4FDFC7FA6FE12128FE495
:100CF700FDFC7FA8FE12128FE4FDFC7F3FFE12125F
:100D07008FE4FDFC7FC8FE12128FE4FDFC7FD3FE4B
:100D170012128FE4FDFCFFFE12128FE4FDFC7FD55B
:100D2700FE12128FE4FDFC7F80FE12128FE4FDFCA1
:100D37007FD8FE12128FE4FDFC7F05FE12128FE4AE
:100D4700FDFC7FD9FE12128FE4FDFC7FF1FE12122B
:100D57008FE4FDFC7FDAFE12128FE4FDFC7F12FEAA
:100D670012128FE4FDFC7FDBFE12128FE4FDFC7F85
:100D770030FE12128FE4FDFC7F8DFE12128FE4FD10
:100D8700FC7F14FE12128FE4FDFC7FAFFE02128F70
:100FEC00BB010CE58229F582E5833AF583E02250BA
:100FFC0006E92582F8E622BBFE06E92582F8E22204
:0D100C00E58229F582E5833AF583E493221D
:10101900EF8DF0A4A8F0CF8CF0A428CE8DF0A42EEB
:02102900FE22A5
:10102B00BC000BBE0029EF8DF084FFADF022E4CCA9
:10103B00F875F008EF2FFFEE33FEEC33FCEE9DEC72
:10104B00984005FCEE9DFE0FD5F0E9E4CEFD22EDB8
:10105B00F8F5F0EE8420D21CFEADF075F008EF2F02
:10106B00FFED33FD4007985006D5F0F222C398FDF3
:05107B000FD5F0EA2290
:10108000A3F8E0C5F025F0F0E58215827002158323
:06109000E0C838F0E82280
:00000001FF
