BL51 BANKED LINKER/LOCATER V6.22                                                        02/05/2021  20:05:44  PAGE 1


BL51 BANKED LINKER/LOCATER V6.22, INVOKED BY:
D:\KIL4\C51\BIN\BL51.EXE STARTUP.obj, main.obj, oled.obj TO OLED


MEMORY MODEL: LARGE


INPUT MODULES INCLUDED:
  STARTUP.obj (?C_STARTUP)
  main.obj (MAIN)
  oled.obj (OLED)
  D:\KIL4\C51\LIB\C51L.LIB (?C?CLDOPTR)
  D:\KIL4\C51\LIB\C51L.LIB (?C?IMUL)
  D:\KIL4\C51\LIB\C51L.LIB (?C?UIDIV)
  D:\KIL4\C51\LIB\C51L.LIB (?C?ILDIX)


LINK MAP OF MODULE:  OLED (?C_STARTUP)


            TYPE    BASE      LENGTH    RELOCATION   SEGMENT NAME
            -----------------------------------------------------

            * * * * * * *   D A T A   M E M O R Y   * * * * * * *
            REG     0000H     0008H     ABSOLUTE     "REG BANK 0"
            IDATA   0008H     0001H     UNIT         ?STACK

            * * * * * * *  X D A T A   M E M O R Y  * * * * * * *
            XDATA   0000H     000FH     UNIT         _XDATA_GROUP_
            XDATA   000FH     0002H     UNIT         ?XD?_FILL_PICTURE?OLED
            XDATA   0011H     0001H     UNIT         ?XD?OLED_ON?OLED

            * * * * * * *   C O D E   M E M O R Y   * * * * * * *
            CODE    0000H     0003H     ABSOLUTE     
            CODE    0003H     0898H     UNIT         ?CO?OLED
            CODE    089BH     041CH     UNIT         ?CO?MAIN
            CODE    0CB7H     00E0H     UNIT         ?PR?OLED_INIT?OLED
            CODE    0D97H     00CEH     UNIT         ?PR?_OLED_SHOWCHAR?OLED
            CODE    0E65H     00CCH     UNIT         ?PR?MAIN?MAIN
            CODE    0F31H     00BBH     UNIT         ?PR?_OLED_SHOWNUM?OLED
            CODE    0FECH     00AAH     UNIT         ?C?LIB_CODE
            CODE    1096H     0093H     UNIT         ?PR?_OLED_DRAWBMP?OLED
            CODE    1129H     008AH     UNIT         ?PR?_OLED_SHOWCHINESE?OLED
            CODE    11B3H     0060H     UNIT         ?PR?_OLED_SHOWSTRING?OLED
            CODE    1213H     0034H     UNIT         ?PR?_OLED_SET_POS?OLED
            CODE    1247H     002DH     UNIT         ?PR?_FILL_PICTURE?OLED
            CODE    1274H     002CH     UNIT         ?PR?_OLED_WR_BYTE?OLED
            CODE    12A0H     0027H     UNIT         ?PR?_WRITE_IIC_BYTE?OLED
            CODE    12C7H     0027H     UNIT         ?PR?OLED_ON?OLED
            CODE    12EEH     0026H     UNIT         ?PR?OLED_CLEAR?OLED
            CODE    1314H     001EH     UNIT         ?PR?_DELAY_50MS?OLED
            CODE    1332H     001EH     UNIT         ?PR?_OLED_POW?OLED
            CODE    1350H     0017H     UNIT         ?PR?OLED_DISPLAY_ON?OLED
            CODE    1367H     0016H     UNIT         ?PR?_DELAY_1MS?OLED
            CODE    137DH     0011H     UNIT         ?PR?OLED_DISPLAY_OFF?OLED
            CODE    138EH     0010H     UNIT         ?PR?IIC_WAIT_ACK?OLED
            CODE    139EH     000EH     UNIT         ?PR?_WRITE_IIC_COMMAND?OLED
            CODE    13ACH     000EH     UNIT         ?PR?_WRITE_IIC_DATA?OLED
BL51 BANKED LINKER/LOCATER V6.22                                                      02/05/2021  20:05:44  PAGE 2


            CODE    13BAH     000CH     UNIT         ?C_C51STARTUP
            CODE    13C6H     0009H     UNIT         ?PR?IIC_START?OLED
            CODE    13CFH     0007H     UNIT         ?PR?IIC_STOP?OLED



OVERLAY MAP OF MODULE:   OLED (?C_STARTUP)


SEGMENT                               XDATA_GROUP
  +--> CALLED SEGMENT               START    LENGTH
---------------------------------------------------
?C_C51STARTUP                       -----    -----
  +--> ?PR?MAIN?MAIN

?PR?MAIN?MAIN                       0000H    0001H
  +--> ?PR?OLED_INIT?OLED
  +--> ?CO?MAIN
  +--> ?PR?_OLED_DRAWBMP?OLED
  +--> ?PR?_DELAY_1MS?OLED
  +--> ?PR?OLED_CLEAR?OLED
  +--> ?PR?_OLED_SHOWSTRING?OLED
  +--> ?PR?_OLED_SHOWCHINESE?OLED
  +--> ?PR?_OLED_SHOWCHAR?OLED
  +--> ?PR?_OLED_SHOWNUM?OLED

?PR?OLED_INIT?OLED                  -----    -----
  +--> ?PR?_OLED_WR_BYTE?OLED

?PR?_OLED_WR_BYTE?OLED              -----    -----
  +--> ?PR?_WRITE_IIC_DATA?OLED
  +--> ?PR?_WRITE_IIC_COMMAND?OLED

?PR?_WRITE_IIC_DATA?OLED            -----    -----
  +--> ?PR?_WRITE_IIC_BYTE?OLED
  +--> ?PR?IIC_WAIT_ACK?OLED
  +--> ?PR?IIC_STOP?OLED

?PR?_WRITE_IIC_BYTE?OLED            -----    -----
  +--> ?PR?IIC_START?OLED

?PR?IIC_WAIT_ACK?OLED               -----    -----
  +--> ?PR?_WRITE_IIC_BYTE?OLED

?PR?_WRITE_IIC_COMMAND?OLED         -----    -----
  +--> ?PR?_WRITE_IIC_BYTE?OLED
  +--> ?PR?IIC_WAIT_ACK?OLED
  +--> ?PR?IIC_STOP?OLED

?PR?_OLED_DRAWBMP?OLED              0001H    000BH
  +--> ?PR?_OLED_SET_POS?OLED
  +--> ?PR?_OLED_WR_BYTE?OLED

?PR?_OLED_SET_POS?OLED              -----    -----
  +--> ?PR?_OLED_WR_BYTE?OLED

?PR?OLED_CLEAR?OLED                 0001H    0001H
BL51 BANKED LINKER/LOCATER V6.22                                                      02/05/2021  20:05:44  PAGE 3


  +--> ?PR?_OLED_WR_BYTE?OLED

?PR?_OLED_SHOWSTRING?OLED           0001H    0007H
  +--> ?PR?_OLED_SHOWCHAR?OLED

?PR?_OLED_SHOWCHAR?OLED             000AH    0005H
  +--> ?PR?_OLED_SET_POS?OLED
  +--> ?CO?OLED
  +--> ?PR?_OLED_WR_BYTE?OLED

?PR?_OLED_SHOWCHINESE?OLED          0001H    0004H
  +--> ?PR?_OLED_SET_POS?OLED
  +--> ?CO?OLED
  +--> ?PR?_OLED_WR_BYTE?OLED

?PR?_OLED_SHOWNUM?OLED              0001H    0009H
  +--> ?PR?_OLED_POW?OLED
  +--> ?PR?_OLED_SHOWCHAR?OLED

?PR?_OLED_POW?OLED                  000AH    0001H



SYMBOL TABLE OF MODULE:  OLED (?C_STARTUP)

  VALUE           TYPE          NAME
  ----------------------------------

  -------         MODULE        ?C_STARTUP
  C:13BAH         SEGMENT       ?C_C51STARTUP
  I:0008H         SEGMENT       ?STACK
  C:0000H         PUBLIC        ?C_STARTUP
  D:00E0H         SYMBOL        ACC
  D:00F0H         SYMBOL        B
  D:0083H         SYMBOL        DPH
  D:0082H         SYMBOL        DPL
  N:0000H         SYMBOL        IBPSTACK
  N:0100H         SYMBOL        IBPSTACKTOP
  N:0080H         SYMBOL        IDATALEN
  C:13BDH         SYMBOL        IDATALOOP
  N:0000H         SYMBOL        PBPSTACK
  N:0100H         SYMBOL        PBPSTACKTOP
  N:0000H         SYMBOL        PDATALEN
  N:0000H         SYMBOL        PDATASTART
  N:0000H         SYMBOL        PPAGE
  N:0000H         SYMBOL        PPAGEENABLE
  D:00A0H         SYMBOL        PPAGE_SFR
  D:0081H         SYMBOL        SP
  C:13BAH         SYMBOL        STARTUP1
  N:0000H         SYMBOL        XBPSTACK
  N:0000H         SYMBOL        XBPSTACKTOP
  N:0000H         SYMBOL        XDATALEN
  N:0000H         SYMBOL        XDATASTART
  C:0000H         LINE#         126
  C:13BAH         LINE#         133
  C:13BCH         LINE#         134
  C:13BDH         LINE#         135
BL51 BANKED LINKER/LOCATER V6.22                                                      02/05/2021  20:05:44  PAGE 4


  C:13BEH         LINE#         136
  C:13C0H         LINE#         185
  C:13C3H         LINE#         196
  -------         ENDMOD        ?C_STARTUP

  -------         MODULE        MAIN
  C:0000H         SYMBOL        _ICE_DUMMY_
  D:0090H         PUBLIC        P1
  C:08B7H         PUBLIC        BMP1
  C:0E65H         PUBLIC        main
  -------         PROC          MAIN
  -------         DO            
  X:0000H         SYMBOL        t
  -------         ENDDO         
  C:0E65H         LINE#         20
  C:0E65H         LINE#         21
  C:0E65H         LINE#         23
  C:0E6BH         LINE#         25
  C:0E6EH         LINE#         28
  C:0E88H         LINE#         29
  C:0E8FH         LINE#         30
  C:0E92H         LINE#         32
  C:0E92H         LINE#         33
  C:0E92H         LINE#         34
  C:0EA4H         LINE#         35
  C:0EACH         LINE#         36
  C:0EB5H         LINE#         38
  C:0EC8H         LINE#         39
  C:0EDBH         LINE#         40
  C:0EEEH         LINE#         41
  C:0F00H         LINE#         42
  C:0F06H         LINE#         43
  C:0F0CH         LINE#         44
  C:0F0CH         LINE#         45
  C:0F0FH         LINE#         46
  C:0F0FH         LINE#         48
  C:0F27H         LINE#         49
  C:0F2EH         LINE#         51
  -------         ENDPROC       MAIN
  -------         ENDMOD        MAIN

  -------         MODULE        OLED
  C:0000H         SYMBOL        _ICE_DUMMY_
  C:1350H         PUBLIC        OLED_Display_On
  D:0090H         PUBLIC        P1
  C:1247H         PUBLIC        _fill_picture
  C:1314H         PUBLIC        _Delay_50ms
  C:0CB7H         PUBLIC        OLED_Init
  C:13ACH         PUBLIC        _Write_IIC_Data
  C:11B3H         PUBLIC        _OLED_ShowString
  C:128FH         PUBLIC        _OLED_WR_Byte
  C:0D97H         PUBLIC        _OLED_ShowChar
  C:0003H         PUBLIC        F6x8
  C:081BH         PUBLIC        Hzk
  B:0090H.1       PUBLIC        OLED_SDIN
  C:12A7H         PUBLIC        _Write_IIC_Byte
  C:022BH         PUBLIC        F8X16
BL51 BANKED LINKER/LOCATER V6.22                                                      02/05/2021  20:05:44  PAGE 5


  C:1399H         PUBLIC        IIC_Wait_Ack
  C:12C7H         PUBLIC        OLED_On
  C:13C6H         PUBLIC        IIC_Start
  C:121BH         PUBLIC        _OLED_Set_Pos
  C:1129H         PUBLIC        _OLED_ShowCHinese
  C:0F31H         PUBLIC        _OLED_ShowNum
  C:137DH         PUBLIC        OLED_Display_Off
  C:1332H         PUBLIC        _oled_pow
  C:13CFH         PUBLIC        IIC_Stop
  C:1367H         PUBLIC        _Delay_1ms
  C:139EH         PUBLIC        _Write_IIC_Command
  B:0090H.0       PUBLIC        OLED_SCL
  C:12EEH         PUBLIC        OLED_Clear
  C:1096H         PUBLIC        _OLED_DrawBMP
  -------         PROC          _DELAY_50MS
  D:0006H         SYMBOL        Del_50ms
  -------         DO            
  D:0004H         SYMBOL        m
  -------         ENDDO         
  C:1314H         LINE#         17
  C:1314H         LINE#         18
  C:1314H         LINE#         20
  C:131DH         LINE#         21
  C:1331H         LINE#         22
  -------         ENDPROC       _DELAY_50MS
  -------         PROC          _DELAY_1MS
  D:0006H         SYMBOL        Del_1ms
  -------         DO            
  D:0005H         SYMBOL        j
  -------         ENDDO         
  C:1367H         LINE#         24
  C:1367H         LINE#         25
  C:1367H         LINE#         27
  C:1371H         LINE#         28
  C:1371H         LINE#         29
  C:137CH         LINE#         30
  C:137CH         LINE#         31
  -------         ENDPROC       _DELAY_1MS
  -------         PROC          IIC_START
  C:13C6H         LINE#         37
  C:13C6H         LINE#         38
  C:13C6H         LINE#         39
  C:13C8H         LINE#         40
  C:13CAH         LINE#         41
  C:13CCH         LINE#         42
  C:13CEH         LINE#         43
  -------         ENDPROC       IIC_START
  -------         PROC          IIC_STOP
  C:13CFH         LINE#         48
  C:13CFH         LINE#         49
  C:13CFH         LINE#         50
  C:13D1H         LINE#         51
  C:13D3H         LINE#         52
  C:13D5H         LINE#         53
  -------         ENDPROC       IIC_STOP
  -------         PROC          L?0106
  -------         ENDPROC       L?0106
BL51 BANKED LINKER/LOCATER V6.22                                                      02/05/2021  20:05:44  PAGE 6


  -------         PROC          IIC_WAIT_ACK
  C:1399H         LINE#         55
  C:1399H         LINE#         56
  C:1399H         LINE#         57
  C:139BH         LINE#         58
  C:139DH         LINE#         59
  -------         ENDPROC       IIC_WAIT_ACK
  -------         PROC          L?0108
  -------         ENDPROC       L?0108
  -------         PROC          _WRITE_IIC_BYTE
  D:0007H         SYMBOL        IIC_Byte
  -------         DO            
  D:0006H         SYMBOL        i
  D:0005H         SYMBOL        m
  D:0007H         SYMBOL        da
  -------         ENDDO         
  C:12A7H         LINE#         64
  C:12A7H         LINE#         65
  C:12A7H         LINE#         68
  C:12A7H         LINE#         69
  C:12A9H         LINE#         70
  C:12ABH         LINE#         71
  C:12ABH         LINE#         72
  C:12ADH         LINE#         74
  C:12B0H         LINE#         75
  C:12B3H         LINE#         76
  C:12B7H         LINE#         77
  C:12B9H         LINE#         78
  C:12BDH         LINE#         79
  C:12BFH         LINE#         80
  C:12C1H         LINE#         81
  C:12C6H         LINE#         82
  -------         ENDPROC       _WRITE_IIC_BYTE
  -------         PROC          _WRITE_IIC_COMMAND
  D:0004H         SYMBOL        IIC_Command
  C:139EH         LINE#         87
  C:139EH         LINE#         88
  C:139EH         LINE#         89
  C:139EH         LINE#         90
  C:13A1H         LINE#         91
  C:13A4H         LINE#         92
  C:13A6H         LINE#         93
  C:13A6H         LINE#         94
  C:13A6H         LINE#         95
  C:13A9H         LINE#         96
  -------         ENDPROC       _WRITE_IIC_COMMAND
  -------         PROC          _WRITE_IIC_DATA
  D:0004H         SYMBOL        IIC_Data
  C:13ACH         LINE#         101
  C:13ACH         LINE#         102
  C:13ACH         LINE#         103
  C:13ACH         LINE#         104
  C:13AFH         LINE#         105
  C:13B2H         LINE#         106
  C:13B4H         LINE#         107
  C:13B4H         LINE#         108
  C:13B4H         LINE#         109
BL51 BANKED LINKER/LOCATER V6.22                                                      02/05/2021  20:05:44  PAGE 7


  C:13B7H         LINE#         110
  -------         ENDPROC       _WRITE_IIC_DATA
  C:1274H         SYMBOL        L?0102
  C:127EH         SYMBOL        L?0103
  C:1285H         SYMBOL        L?0104
  C:128BH         SYMBOL        L?0105
  -------         PROC          L?0101
  -------         ENDPROC       L?0101
  C:1274H         SYMBOL        L?0102
  C:127EH         SYMBOL        L?0103
  C:1285H         SYMBOL        L?0104
  C:128BH         SYMBOL        L?0105
  -------         PROC          _OLED_WR_BYTE
  D:0002H         SYMBOL        dat
  D:0004H         SYMBOL        cmd
  C:128FH         LINE#         112
  C:1293H         LINE#         113
  C:1293H         LINE#         114
  C:1297H         LINE#         115
  C:1297H         LINE#         116
  C:129AH         LINE#         117
  C:129AH         LINE#         119
  C:129AH         LINE#         120
  C:129FH         LINE#         121
  C:129FH         LINE#         122
  -------         ENDPROC       _OLED_WR_BYTE
  -------         PROC          _FILL_PICTURE
  X:000FH         SYMBOL        fill_Data
  -------         DO            
  D:0001H         SYMBOL        m
  X:0010H         SYMBOL        n
  -------         ENDDO         
  C:1247H         LINE#         127
  C:124CH         LINE#         128
  C:124CH         LINE#         130
  C:124EH         LINE#         131
  C:124EH         LINE#         132
  C:124EH         LINE#         133
  C:124EH         LINE#         134
  C:1251H         LINE#         135
  C:1256H         LINE#         136
  C:1256H         LINE#         137
  C:1264H         LINE#         138
  C:126EH         LINE#         139
  C:1273H         LINE#         140
  -------         ENDPROC       _FILL_PICTURE
  -------         PROC          L?0107
  -------         ENDPROC       L?0107
  -------         PROC          _OLED_SET_POS
  D:0001H         SYMBOL        x
  D:0005H         SYMBOL        y
  C:121BH         LINE#         144
  C:121DH         LINE#         145
  C:122AH         LINE#         146
  C:123BH         LINE#         147
  -------         ENDPROC       _OLED_SET_POS
  -------         PROC          OLED_DISPLAY_ON
BL51 BANKED LINKER/LOCATER V6.22                                                      02/05/2021  20:05:44  PAGE 8


  C:1350H         LINE#         151
  C:1350H         LINE#         152
  C:1350H         LINE#         153
  C:1355H         LINE#         154
  C:135EH         LINE#         155
  -------         ENDPROC       OLED_DISPLAY_ON
  -------         PROC          OLED_DISPLAY_OFF
  C:137DH         LINE#         159
  C:137DH         LINE#         160
  C:137DH         LINE#         161
  C:1382H         LINE#         162
  C:1385H         LINE#         163
  -------         ENDPROC       OLED_DISPLAY_OFF
  -------         PROC          OLED_CLEAR
  -------         DO            
  D:0001H         SYMBOL        i
  X:0001H         SYMBOL        n
  -------         ENDDO         
  C:12EEH         LINE#         167
  C:12EEH         LINE#         168
  C:12EEH         LINE#         170
  C:12F0H         LINE#         171
  C:12F0H         LINE#         172
  C:12F0H         LINE#         173
  C:12F0H         LINE#         174
  C:12F3H         LINE#         175
  C:130EH         LINE#         176
  C:1313H         LINE#         177
  -------         ENDPROC       OLED_CLEAR
  -------         PROC          OLED_ON
  -------         DO            
  D:0001H         SYMBOL        i
  X:0011H         SYMBOL        n
  -------         ENDDO         
  C:12C7H         LINE#         179
  C:12C7H         LINE#         180
  C:12C7H         LINE#         182
  C:12C9H         LINE#         183
  C:12C9H         LINE#         184
  C:12C9H         LINE#         185
  C:12C9H         LINE#         186
  C:12CCH         LINE#         187
  C:12E8H         LINE#         188
  C:12EDH         LINE#         189
  -------         ENDPROC       OLED_ON
  -------         PROC          _OLED_SHOWCHAR
  X:000AH         SYMBOL        x
  X:000BH         SYMBOL        y
  D:0003H         SYMBOL        chr
  X:000DH         SYMBOL        Char_Size
  -------         DO            
  X:000EH         SYMBOL        c
  D:0001H         SYMBOL        i
  -------         ENDDO         
  C:0D97H         LINE#         196
  C:0DA2H         LINE#         197
  C:0DA2H         LINE#         198
BL51 BANKED LINKER/LOCATER V6.22                                                      02/05/2021  20:05:44  PAGE 9


  C:0DA8H         LINE#         199
  C:0DACH         LINE#         200
  C:0DBCH         LINE#         201
  C:0DC4H         LINE#         202
  C:0DC4H         LINE#         203
  C:0DC7H         LINE#         204
  C:0DC9H         LINE#         205
  C:0DF6H         LINE#         206
  C:0E02H         LINE#         207
  C:0E04H         LINE#         208
  C:0E32H         LINE#         209
  C:0E32H         LINE#         210
  C:0E32H         LINE#         211
  C:0E35H         LINE#         212
  C:0E37H         LINE#         213
  C:0E64H         LINE#         215
  C:0E64H         LINE#         216
  -------         ENDPROC       _OLED_SHOWCHAR
  -------         PROC          _OLED_POW
  X:000AH         SYMBOL        m
  D:0001H         SYMBOL        n
  -------         DO            
  D:0006H         SYMBOL        result
  -------         ENDDO         
  C:1332H         LINE#         219
  C:1339H         LINE#         220
  C:1339H         LINE#         221
  C:133DH         LINE#         222
  C:134FH         LINE#         223
  C:134FH         LINE#         224
  -------         ENDPROC       _OLED_POW
  -------         PROC          _OLED_SHOWNUM
  X:0001H         SYMBOL        x
  X:0002H         SYMBOL        y
  X:0003H         SYMBOL        num
  X:0005H         SYMBOL        len
  X:0006H         SYMBOL        size2
  -------         DO            
  X:0007H         SYMBOL        t
  X:0008H         SYMBOL        temp
  X:0009H         SYMBOL        enshow
  -------         ENDDO         
  C:0F31H         LINE#         232
  C:0F3FH         LINE#         233
  C:0F3FH         LINE#         235
  C:0F44H         LINE#         236
  C:0F59H         LINE#         237
  C:0F59H         LINE#         238
  C:0F80H         LINE#         239
  C:0F93H         LINE#         240
  C:0F93H         LINE#         241
  C:0F97H         LINE#         242
  C:0F97H         LINE#         243
  C:0FB2H         LINE#         244
  C:0FB4H         LINE#         245
  C:0FBAH         LINE#         247
  C:0FBAH         LINE#         248
BL51 BANKED LINKER/LOCATER V6.22                                                      02/05/2021  20:05:44  PAGE 10


  C:0FE2H         LINE#         249
  C:0FEBH         LINE#         250
  -------         ENDPROC       _OLED_SHOWNUM
  -------         PROC          _OLED_SHOWSTRING
  X:0001H         SYMBOL        x
  X:0002H         SYMBOL        y
  X:0003H         SYMBOL        chr
  X:0006H         SYMBOL        Char_Size
  -------         DO            
  X:0007H         SYMBOL        j
  -------         ENDDO         
  C:11B3H         LINE#         253
  C:11C4H         LINE#         254
  C:11C4H         LINE#         255
  C:11C9H         LINE#         256
  C:11E3H         LINE#         257
  C:11F6H         LINE#         258
  C:11FDH         LINE#         259
  C:120AH         LINE#         260
  C:1210H         LINE#         261
  C:1212H         LINE#         262
  -------         ENDPROC       _OLED_SHOWSTRING
  -------         PROC          _OLED_SHOWCHINESE
  X:0001H         SYMBOL        x
  X:0002H         SYMBOL        y
  X:0003H         SYMBOL        no
  -------         DO            
  D:0001H         SYMBOL        t
  X:0004H         SYMBOL        adder
  -------         ENDDO         
  C:1129H         LINE#         265
  C:1136H         LINE#         266
  C:1136H         LINE#         267
  C:113BH         LINE#         268
  C:113EH         LINE#         269
  C:1140H         LINE#         270
  C:1140H         LINE#         271
  C:1167H         LINE#         272
  C:116DH         LINE#         273
  C:1172H         LINE#         274
  C:117EH         LINE#         275
  C:1180H         LINE#         276
  C:1180H         LINE#         277
  C:11A7H         LINE#         278
  C:11ADH         LINE#         279
  C:11B2H         LINE#         280
  -------         ENDPROC       _OLED_SHOWCHINESE
  -------         PROC          _OLED_DRAWBMP
  X:0001H         SYMBOL        x0
  D:0005H         SYMBOL        y0
  X:0003H         SYMBOL        x1
  X:0004H         SYMBOL        y1
  X:0005H         SYMBOL        BMP
  -------         DO            
  X:0008H         SYMBOL        j
  X:000AH         SYMBOL        x
  X:000BH         SYMBOL        y
BL51 BANKED LINKER/LOCATER V6.22                                                      02/05/2021  20:05:44  PAGE 11


  -------         ENDDO         
  C:1096H         LINE#         283
  C:10A0H         LINE#         284
  C:10A0H         LINE#         285
  C:10A7H         LINE#         288
  C:10B8H         LINE#         289
  C:10C6H         LINE#         290
  C:10D9H         LINE#         291
  C:10D9H         LINE#         292
  C:10E1H         LINE#         293
  C:10F3H         LINE#         294
  C:10F3H         LINE#         295
  C:1118H         LINE#         296
  C:1120H         LINE#         297
  C:1128H         LINE#         298
  -------         ENDPROC       _OLED_DRAWBMP
  -------         PROC          OLED_INIT
  C:0CB7H         LINE#         301
  C:0CB7H         LINE#         302
  C:0CB7H         LINE#         304
  C:0CBDH         LINE#         305
  C:0CBDH         LINE#         306
  C:0CC0H         LINE#         307
  C:0CC9H         LINE#         308
  C:0CD2H         LINE#         309
  C:0CDBH         LINE#         310
  C:0CE4H         LINE#         311
  C:0CEDH         LINE#         312
  C:0CF6H         LINE#         313
  C:0CFFH         LINE#         314
  C:0D08H         LINE#         315
  C:0D11H         LINE#         316
  C:0D1AH         LINE#         317
  C:0D22H         LINE#         319
  C:0D2BH         LINE#         320
  C:0D34H         LINE#         322
  C:0D3DH         LINE#         323
  C:0D46H         LINE#         325
  C:0D4FH         LINE#         326
  C:0D58H         LINE#         328
  C:0D61H         LINE#         329
  C:0D6AH         LINE#         331
  C:0D73H         LINE#         332
  C:0D7CH         LINE#         334
  C:0D85H         LINE#         335
  C:0D8EH         LINE#         337
  -------         ENDPROC       OLED_INIT
  -------         ENDMOD        OLED

  -------         MODULE        ?C?CLDOPTR
  C:0FECH         PUBLIC        ?C?CLDOPTR
  -------         ENDMOD        ?C?CLDOPTR

  -------         MODULE        ?C?IMUL
  C:1019H         PUBLIC        ?C?IMUL
  -------         ENDMOD        ?C?IMUL

BL51 BANKED LINKER/LOCATER V6.22                                                      02/05/2021  20:05:44  PAGE 12


  -------         MODULE        ?C?UIDIV
  C:102BH         PUBLIC        ?C?UIDIV
  -------         ENDMOD        ?C?UIDIV

  -------         MODULE        ?C?ILDIX
  C:1080H         PUBLIC        ?C?ILDIX
  -------         ENDMOD        ?C?ILDIX

*** WARNING L16: UNCALLED SEGMENT, IGNORED FOR OVERLAY PROCESS
    SEGMENT: ?PR?_DELAY_50MS?OLED

*** WARNING L16: UNCALLED SEGMENT, IGNORED FOR OVERLAY PROCESS
    SEGMENT: ?PR?_FILL_PICTURE?OLED

*** WARNING L16: UNCALLED SEGMENT, IGNORED FOR OVERLAY PROCESS
    SEGMENT: ?PR?OLED_DISPLAY_ON?OLED

*** WARNING L16: UNCALLED SEGMENT, IGNORED FOR OVERLAY PROCESS
    SEGMENT: ?PR?OLED_DISPLAY_OFF?OLED

*** WARNING L16: UNCALLED SEGMENT, IGNORED FOR OVERLAY PROCESS
    SEGMENT: ?PR?OLED_ON?OLED

Program Size: data=9.0 xdata=18 code=5078
LINK/LOCATE RUN COMPLETE.  5 WARNING(S),  0 ERROR(S)
